:03000000020800F3
:0C080000787FE4F6D8FD758125020847DA
:100A1D000125000121000122000120000223000018
:03000B0002088C5C
:10088C00C0E0C0F0C083C082C0D075D000C000C032
:10089C0001C002C003C004C005C006C007758CFCB3
:1008AC00758A660524E52470020523C394E8E523C4
:1008BC009403403AE5206036752300752400052525
:1008CC00E525943C7480948040217525000521E534
:1008DC0021943C7480948040127521000522E522FD
:1008EC009418748094804003752200120915D00767
:1008FC00D006D005D004D003D002D001D000D0D087
:09090C00D082D083D0F0D0E0329B
:100A2E00758901758CFC758A66D2A9D2AFD28C22DB
:0609A400D2A17F057E00D8
:1009AA00E4FDFCC3ED9FEC9E5016758CFC758A66BF
:1009BA00D28C308DFDC28CC28D0DBD00010C80E33E
:0109CA00220A
:0A0A4C008F80C2A01209A4C2A122EB
:0A0A56008F80D2A01209A4C2A122D1
:100A09007F38120A4C7F0C120A4C7F01120A4C7F64
:040A190080020A4C01
:1009CB008B1D8A1E891FAB1DAA1EA91F1209F06061
:1009DB0013051FE51F7002051E14F91209F0FF1213
:0509EB000A5680E22223
:100915007F85120A4CE52275F00A842430F514E52A
:100925002275F00A84E5F02430F51575163AE521AF
:1009350075F00A842430F517E52175F00A84E5F091
:100945002430F51875193AE52575F00A842430F533
:100955001AE52575F00A84E5F02430F51BE4F51C4D
:08096500FB7A0079140209CBB2
:10096D002090107F147E001209AA20900675200198
:10097D003090FD2091207F147E001209AA2091163F
:10098D00E5206005E4F520800AE4F522F521F52542
:07099D001209153091FD2243
:0E0A3E00120A09120A2E12091512096D80FB08
:10080C00020A3EE493A3F8E493A34003F68001F2BA
:10081C0008DFF48029E493A3F85407240CC8C333ED
:10082C00C4540F4420C8834004F456800146F6DFBC
:10083C00E4800B0102040810204080900A1DE47E25
:10084C00019360BCA3FF543F30E509541FFEE493B1
:10085C00A360010ECF54C025E060A840B8E493A378
:10086C00FAE493A3F8E493A3C8C582C8CAC583CAA3
:10087C00F0A3C8C582C8CAC583CADFE9DEE780BE5B
:010A2D0000C8
:1009F000BB010689828A83E0225002E722BBFE0205
:090A0000E32289828A83E4932237
:00000001FF
